{
  "_format": "hh-sol-artifact-1",
  "contractName": "DashboardToolsContract",
  "sourceName": "src/contracts/contracts/DashboardToolsContract.sol",
  "abi": [
    {
      "inputs": [],
      "stateMutability": "nonpayable",
      "type": "constructor"
    },
    {
      "anonymous": false,
      "inputs": [
        {
          "indexed": true,
          "internalType": "address",
          "name": "tokenAddress",
          "type": "address"
        },
        {
          "indexed": false,
          "internalType": "bool",
          "name": "isAccepted",
          "type": "bool"
        },
        {
          "indexed": false,
          "internalType": "uint256",
          "name": "timestamp",
          "type": "uint256"
        }
      ],
      "name": "AcceptedTokenStatusChanged",
      "type": "event"
    },
    {
      "anonymous": false,
      "inputs": [
        {
          "indexed": false,
          "internalType": "address",
          "name": "previousAdmin",
          "type": "address"
        },
        {
          "indexed": false,
          "internalType": "address",
          "name": "newAdmin",
          "type": "address"
        }
      ],
      "name": "AdminChanged",
      "type": "event"
    },
    {
      "anonymous": false,
      "inputs": [
        {
          "indexed": false,
          "internalType": "string",
          "name": "prefix",
          "type": "string"
        },
        {
          "indexed": false,
          "internalType": "bool",
          "name": "allowed",
          "type": "bool"
        }
      ],
      "name": "AllowedURIPrefixSet",
      "type": "event"
    },
    {
      "anonymous": false,
      "inputs": [
        {
          "indexed": true,
          "internalType": "address",
          "name": "beacon",
          "type": "address"
        }
      ],
      "name": "BeaconUpgraded",
      "type": "event"
    },
    {
      "anonymous": false,
      "inputs": [
        {
          "indexed": true,
          "internalType": "bytes32",
          "name": "contentId",
          "type": "bytes32"
        },
        {
          "indexed": false,
          "internalType": "bytes32",
          "name": "contentHash",
          "type": "bytes32"
        },
        {
          "indexed": false,
          "internalType": "string",
          "name": "metadataURI",
          "type": "string"
        },
        {
          "indexed": false,
          "internalType": "uint256",
          "name": "timestamp",
          "type": "uint256"
        }
      ],
      "name": "ContentHashStored",
      "type": "event"
    },
    {
      "anonymous": false,
      "inputs": [
        {
          "indexed": false,
          "internalType": "uint256",
          "name": "newPercentage",
          "type": "uint256"
        },
        {
          "indexed": false,
          "internalType": "uint256",
          "name": "timestamp",
          "type": "uint256"
        }
      ],
      "name": "DiscountPercentageUpdated",
      "type": "event"
    },
    {
      "anonymous": false,
      "inputs": [
        {
          "indexed": false,
          "internalType": "uint8",
          "name": "version",
          "type": "uint8"
        }
      ],
      "name": "Initialized",
      "type": "event"
    },
    {
      "anonymous": false,
      "inputs": [
        {
          "indexed": false,
          "internalType": "address",
          "name": "account",
          "type": "address"
        }
      ],
      "name": "Paused",
      "type": "event"
    },
    {
      "anonymous": false,
      "inputs": [
        {
          "indexed": true,
          "internalType": "address",
          "name": "user",
          "type": "address"
        },
        {
          "indexed": true,
          "internalType": "address",
          "name": "tokenPaid",
          "type": "address"
        },
        {
          "indexed": false,
          "internalType": "uint256",
          "name": "totalAmountPaid",
          "type": "uint256"
        },
        {
          "indexed": false,
          "internalType": "bytes32[]",
          "name": "toolIdsPurchased",
          "type": "bytes32[]"
        },
        {
          "indexed": false,
          "internalType": "bool",
          "name": "discountedForCompleteAudit",
          "type": "bool"
        },
        {
          "indexed": false,
          "internalType": "uint256",
          "name": "timestamp",
          "type": "uint256"
        }
      ],
      "name": "PaymentMade",
      "type": "event"
    },
    {
      "anonymous": false,
      "inputs": [
        {
          "indexed": true,
          "internalType": "bytes32",
          "name": "toolId",
          "type": "bytes32"
        },
        {
          "indexed": false,
          "internalType": "uint256",
          "name": "newPrice",
          "type": "uint256"
        },
        {
          "indexed": false,
          "internalType": "uint256",
          "name": "timestamp",
          "type": "uint256"
        }
      ],
      "name": "PriceUpdated",
      "type": "event"
    },
    {
      "anonymous": false,
      "inputs": [
        {
          "indexed": true,
          "internalType": "bytes32",
          "name": "role",
          "type": "bytes32"
        },
        {
          "indexed": true,
          "internalType": "bytes32",
          "name": "previousAdminRole",
          "type": "bytes32"
        },
        {
          "indexed": true,
          "internalType": "bytes32",
          "name": "newAdminRole",
          "type": "bytes32"
        }
      ],
      "name": "RoleAdminChanged",
      "type": "event"
    },
    {
      "anonymous": false,
      "inputs": [
        {
          "indexed": true,
          "internalType": "bytes32",
          "name": "role",
          "type": "bytes32"
        },
        {
          "indexed": true,
          "internalType": "address",
          "name": "account",
          "type": "address"
        },
        {
          "indexed": true,
          "internalType": "address",
          "name": "sender",
          "type": "address"
        }
      ],
      "name": "RoleGranted",
      "type": "event"
    },
    {
      "anonymous": false,
      "inputs": [
        {
          "indexed": true,
          "internalType": "bytes32",
          "name": "role",
          "type": "bytes32"
        },
        {
          "indexed": true,
          "internalType": "address",
          "name": "account",
          "type": "address"
        },
        {
          "indexed": true,
          "internalType": "address",
          "name": "sender",
          "type": "address"
        }
      ],
      "name": "RoleRevoked",
      "type": "event"
    },
    {
      "anonymous": false,
      "inputs": [
        {
          "indexed": true,
          "internalType": "bytes32",
          "name": "toolId",
          "type": "bytes32"
        },
        {
          "indexed": true,
          "internalType": "bytes32",
          "name": "actionType",
          "type": "bytes32"
        },
        {
          "indexed": true,
          "internalType": "address",
          "name": "eventUser",
          "type": "address"
        },
        {
          "indexed": false,
          "internalType": "string",
          "name": "resourceId",
          "type": "string"
        },
        {
          "indexed": false,
          "internalType": "string",
          "name": "metadataURI",
          "type": "string"
        },
        {
          "indexed": false,
          "internalType": "uint256",
          "name": "timestamp",
          "type": "uint256"
        }
      ],
      "name": "ToolAction",
      "type": "event"
    },
    {
      "anonymous": false,
      "inputs": [
        {
          "indexed": true,
          "internalType": "address",
          "name": "oldTreasury",
          "type": "address"
        },
        {
          "indexed": true,
          "internalType": "address",
          "name": "newTreasury",
          "type": "address"
        },
        {
          "indexed": false,
          "internalType": "uint256",
          "name": "timestamp",
          "type": "uint256"
        }
      ],
      "name": "TreasuryUpdated",
      "type": "event"
    },
    {
      "anonymous": false,
      "inputs": [
        {
          "indexed": false,
          "internalType": "address",
          "name": "account",
          "type": "address"
        }
      ],
      "name": "Unpaused",
      "type": "event"
    },
    {
      "anonymous": false,
      "inputs": [
        {
          "indexed": true,
          "internalType": "address",
          "name": "implementation",
          "type": "address"
        }
      ],
      "name": "Upgraded",
      "type": "event"
    },
    {
      "inputs": [],
      "name": "DEFAULT_ADMIN_ROLE",
      "outputs": [
        {
          "internalType": "bytes32",
          "name": "",
          "type": "bytes32"
        }
      ],
      "stateMutability": "view",
      "type": "function"
    },
    {
      "inputs": [],
      "name": "EMITTER_ROLE",
      "outputs": [
        {
          "internalType": "bytes32",
          "name": "",
          "type": "bytes32"
        }
      ],
      "stateMutability": "view",
      "type": "function"
    },
    {
      "inputs": [],
      "name": "PAUSER_ROLE",
      "outputs": [
        {
          "internalType": "bytes32",
          "name": "",
          "type": "bytes32"
        }
      ],
      "stateMutability": "view",
      "type": "function"
    },
    {
      "inputs": [],
      "name": "PRICE_ADMIN_ROLE",
      "outputs": [
        {
          "internalType": "bytes32",
          "name": "",
          "type": "bytes32"
        }
      ],
      "stateMutability": "view",
      "type": "function"
    },
    {
      "inputs": [],
      "name": "TOKEN_ADMIN_ROLE",
      "outputs": [
        {
          "internalType": "bytes32",
          "name": "",
          "type": "bytes32"
        }
      ],
      "stateMutability": "view",
      "type": "function"
    },
    {
      "inputs": [],
      "name": "UPGRADER_ROLE",
      "outputs": [
        {
          "internalType": "bytes32",
          "name": "",
          "type": "bytes32"
        }
      ],
      "stateMutability": "view",
      "type": "function"
    },
    {
      "inputs": [],
      "name": "URI_WHITELIST_ADMIN_ROLE",
      "outputs": [
        {
          "internalType": "bytes32",
          "name": "",
          "type": "bytes32"
        }
      ],
      "stateMutability": "view",
      "type": "function"
    },
    {
      "inputs": [
        {
          "internalType": "address",
          "name": "",
          "type": "address"
        }
      ],
      "name": "acceptedTokens",
      "outputs": [
        {
          "internalType": "bool",
          "name": "",
          "type": "bool"
        }
      ],
      "stateMutability": "view",
      "type": "function"
    },
    {
      "inputs": [
        {
          "internalType": "address",
          "name": "_tokenAddress",
          "type": "address"
        }
      ],
      "name": "addAcceptedToken",
      "outputs": [],
      "stateMutability": "nonpayable",
      "type": "function"
    },
    {
      "inputs": [
        {
          "internalType": "string",
          "name": "",
          "type": "string"
        }
      ],
      "name": "allowedURIPrefixes",
      "outputs": [
        {
          "internalType": "bool",
          "name": "",
          "type": "bool"
        }
      ],
      "stateMutability": "view",
      "type": "function"
    },
    {
      "inputs": [],
      "name": "completeAuditDiscountPercentage",
      "outputs": [
        {
          "internalType": "uint256",
          "name": "",
          "type": "uint256"
        }
      ],
      "stateMutability": "view",
      "type": "function"
    },
    {
      "inputs": [
        {
          "internalType": "bytes32",
          "name": "",
          "type": "bytes32"
        }
      ],
      "name": "contentHashes",
      "outputs": [
        {
          "internalType": "bytes32",
          "name": "",
          "type": "bytes32"
        }
      ],
      "stateMutability": "view",
      "type": "function"
    },
    {
      "inputs": [
        {
          "internalType": "bytes32",
          "name": "_toolId",
          "type": "bytes32"
        },
        {
          "internalType": "bytes32",
          "name": "_actionType",
          "type": "bytes32"
        },
        {
          "internalType": "address",
          "name": "_eventUser",
          "type": "address"
        },
        {
          "internalType": "string",
          "name": "_resourceId",
          "type": "string"
        },
        {
          "internalType": "string",
          "name": "_metadataURI",
          "type": "string"
        }
      ],
      "name": "emitToolAction",
      "outputs": [],
      "stateMutability": "nonpayable",
      "type": "function"
    },
    {
      "inputs": [
        {
          "internalType": "bytes32",
          "name": "_contentId",
          "type": "bytes32"
        }
      ],
      "name": "getHash",
      "outputs": [
        {
          "internalType": "bytes32",
          "name": "",
          "type": "bytes32"
        }
      ],
      "stateMutability": "view",
      "type": "function"
    },
    {
      "inputs": [
        {
          "internalType": "bytes32",
          "name": "role",
          "type": "bytes32"
        }
      ],
      "name": "getRoleAdmin",
      "outputs": [
        {
          "internalType": "bytes32",
          "name": "",
          "type": "bytes32"
        }
      ],
      "stateMutability": "view",
      "type": "function"
    },
    {
      "inputs": [
        {
          "internalType": "bytes32",
          "name": "role",
          "type": "bytes32"
        },
        {
          "internalType": "uint256",
          "name": "index",
          "type": "uint256"
        }
      ],
      "name": "getRoleMember",
      "outputs": [
        {
          "internalType": "address",
          "name": "",
          "type": "address"
        }
      ],
      "stateMutability": "view",
      "type": "function"
    },
    {
      "inputs": [
        {
          "internalType": "bytes32",
          "name": "role",
          "type": "bytes32"
        }
      ],
      "name": "getRoleMemberCount",
      "outputs": [
        {
          "internalType": "uint256",
          "name": "",
          "type": "uint256"
        }
      ],
      "stateMutability": "view",
      "type": "function"
    },
    {
      "inputs": [
        {
          "internalType": "address",
          "name": "_tokenAddress",
          "type": "address"
        },
        {
          "internalType": "bytes32[]",
          "name": "_toolIdsToPurchase",
          "type": "bytes32[]"
        }
      ],
      "name": "getToolsPrice",
      "outputs": [
        {
          "internalType": "uint256",
          "name": "totalPriceBeforeDiscount",
          "type": "uint256"
        },
        {
          "internalType": "uint256",
          "name": "finalPrice",
          "type": "uint256"
        },
        {
          "internalType": "bool",
          "name": "isCompleteAuditOffer",
          "type": "bool"
        }
      ],
      "stateMutability": "view",
      "type": "function"
    },
    {
      "inputs": [
        {
          "internalType": "bytes32",
          "name": "role",
          "type": "bytes32"
        },
        {
          "internalType": "address",
          "name": "account",
          "type": "address"
        }
      ],
      "name": "grantRole",
      "outputs": [],
      "stateMutability": "nonpayable",
      "type": "function"
    },
    {
      "inputs": [
        {
          "internalType": "bytes32",
          "name": "role",
          "type": "bytes32"
        },
        {
          "internalType": "address",
          "name": "account",
          "type": "address"
        }
      ],
      "name": "hasRole",
      "outputs": [
        {
          "internalType": "bool",
          "name": "",
          "type": "bool"
        }
      ],
      "stateMutability": "view",
      "type": "function"
    },
    {
      "inputs": [
        {
          "internalType": "address",
          "name": "initialAdmin",
          "type": "address"
        },
        {
          "internalType": "address",
          "name": "initialEmitter",
          "type": "address"
        },
        {
          "internalType": "address",
          "name": "initialPauser",
          "type": "address"
        },
        {
          "internalType": "address",
          "name": "initialUpgrader",
          "type": "address"
        },
        {
          "internalType": "address",
          "name": "initialUriWhitelistAdmin",
          "type": "address"
        },
        {
          "internalType": "address",
          "name": "initialPriceAdmin",
          "type": "address"
        },
        {
          "internalType": "address",
          "name": "initialTokenAdmin",
          "type": "address"
        },
        {
          "internalType": "address",
          "name": "_treasuryAddress",
          "type": "address"
        },
        {
          "internalType": "uint256",
          "name": "_initialDiscountPercentage",
          "type": "uint256"
        }
      ],
      "name": "initialize",
      "outputs": [],
      "stateMutability": "nonpayable",
      "type": "function"
    },
    {
      "inputs": [
        {
          "internalType": "bytes32",
          "name": "",
          "type": "bytes32"
        }
      ],
      "name": "isToolRegistered",
      "outputs": [
        {
          "internalType": "bool",
          "name": "",
          "type": "bool"
        }
      ],
      "stateMutability": "view",
      "type": "function"
    },
    {
      "inputs": [],
      "name": "pause",
      "outputs": [],
      "stateMutability": "nonpayable",
      "type": "function"
    },
    {
      "inputs": [],
      "name": "paused",
      "outputs": [
        {
          "internalType": "bool",
          "name": "",
          "type": "bool"
        }
      ],
      "stateMutability": "view",
      "type": "function"
    },
    {
      "inputs": [
        {
          "internalType": "address",
          "name": "_tokenAddress",
          "type": "address"
        },
        {
          "internalType": "bytes32[]",
          "name": "_toolIdsToPurchase",
          "type": "bytes32[]"
        }
      ],
      "name": "payForTools",
      "outputs": [],
      "stateMutability": "nonpayable",
      "type": "function"
    },
    {
      "inputs": [],
      "name": "proxiableUUID",
      "outputs": [
        {
          "internalType": "bytes32",
          "name": "",
          "type": "bytes32"
        }
      ],
      "stateMutability": "view",
      "type": "function"
    },
    {
      "inputs": [
        {
          "internalType": "bytes32",
          "name": "_toolId",
          "type": "bytes32"
        },
        {
          "internalType": "bytes32",
          "name": "_interactionType",
          "type": "bytes32"
        },
        {
          "internalType": "address",
          "name": "_eventUser",
          "type": "address"
        },
        {
          "internalType": "string",
          "name": "_resourceId",
          "type": "string"
        },
        {
          "internalType": "string",
          "name": "_metadataURI",
          "type": "string"
        }
      ],
      "name": "registerUserInteraction",
      "outputs": [],
      "stateMutability": "nonpayable",
      "type": "function"
    },
    {
      "inputs": [
        {
          "internalType": "uint256",
          "name": "",
          "type": "uint256"
        }
      ],
      "name": "registeredToolIds",
      "outputs": [
        {
          "internalType": "bytes32",
          "name": "",
          "type": "bytes32"
        }
      ],
      "stateMutability": "view",
      "type": "function"
    },
    {
      "inputs": [
        {
          "internalType": "address",
          "name": "_tokenAddress",
          "type": "address"
        }
      ],
      "name": "removeAcceptedToken",
      "outputs": [],
      "stateMutability": "nonpayable",
      "type": "function"
    },
    {
      "inputs": [
        {
          "internalType": "bytes32",
          "name": "role",
          "type": "bytes32"
        },
        {
          "internalType": "address",
          "name": "account",
          "type": "address"
        }
      ],
      "name": "renounceRole",
      "outputs": [],
      "stateMutability": "nonpayable",
      "type": "function"
    },
    {
      "inputs": [
        {
          "internalType": "bytes32",
          "name": "role",
          "type": "bytes32"
        },
        {
          "internalType": "address",
          "name": "account",
          "type": "address"
        }
      ],
      "name": "revokeRole",
      "outputs": [],
      "stateMutability": "nonpayable",
      "type": "function"
    },
    {
      "inputs": [
        {
          "internalType": "string",
          "name": "prefix",
          "type": "string"
        },
        {
          "internalType": "bool",
          "name": "allowed",
          "type": "bool"
        }
      ],
      "name": "setAllowedURIPrefix",
      "outputs": [],
      "stateMutability": "nonpayable",
      "type": "function"
    },
    {
      "inputs": [
        {
          "internalType": "uint256",
          "name": "_percentage",
          "type": "uint256"
        }
      ],
      "name": "setCompleteAuditDiscountPercentage",
      "outputs": [],
      "stateMutability": "nonpayable",
      "type": "function"
    },
    {
      "inputs": [
        {
          "internalType": "bytes32",
          "name": "_toolId",
          "type": "bytes32"
        },
        {
          "internalType": "uint256",
          "name": "_price",
          "type": "uint256"
        }
      ],
      "name": "setToolPrice",
      "outputs": [],
      "stateMutability": "nonpayable",
      "type": "function"
    },
    {
      "inputs": [
        {
          "internalType": "address",
          "name": "_newTreasuryAddress",
          "type": "address"
        }
      ],
      "name": "setTreasuryAddress",
      "outputs": [],
      "stateMutability": "nonpayable",
      "type": "function"
    },
    {
      "inputs": [
        {
          "internalType": "bytes32",
          "name": "_contentId",
          "type": "bytes32"
        },
        {
          "internalType": "bytes32",
          "name": "_contentHash",
          "type": "bytes32"
        },
        {
          "internalType": "string",
          "name": "_metadataURI",
          "type": "string"
        }
      ],
      "name": "storeHashForVerification",
      "outputs": [],
      "stateMutability": "nonpayable",
      "type": "function"
    },
    {
      "inputs": [
        {
          "internalType": "bytes4",
          "name": "interfaceId",
          "type": "bytes4"
        }
      ],
      "name": "supportsInterface",
      "outputs": [
        {
          "internalType": "bool",
          "name": "",
          "type": "bool"
        }
      ],
      "stateMutability": "view",
      "type": "function"
    },
    {
      "inputs": [
        {
          "internalType": "bytes32",
          "name": "",
          "type": "bytes32"
        }
      ],
      "name": "toolPrices",
      "outputs": [
        {
          "internalType": "uint256",
          "name": "",
          "type": "uint256"
        }
      ],
      "stateMutability": "view",
      "type": "function"
    },
    {
      "inputs": [],
      "name": "treasuryAddress",
      "outputs": [
        {
          "internalType": "address",
          "name": "",
          "type": "address"
        }
      ],
      "stateMutability": "view",
      "type": "function"
    },
    {
      "inputs": [],
      "name": "unpause",
      "outputs": [],
      "stateMutability": "nonpayable",
      "type": "function"
    },
    {
      "inputs": [
        {
          "internalType": "address",
          "name": "newImplementation",
          "type": "address"
        }
      ],
      "name": "upgradeTo",
      "outputs": [],
      "stateMutability": "nonpayable",
      "type": "function"
    },
    {
      "inputs": [
        {
          "internalType": "address",
          "name": "newImplementation",
          "type": "address"
        },
        {
          "internalType": "bytes",
          "name": "data",
          "type": "bytes"
        }
      ],
      "name": "upgradeToAndCall",
      "outputs": [],
      "stateMutability": "payable",
      "type": "function"
    }
  ],
  "bytecode": "0x60a06040523073ffffffffffffffffffffffffffffffffffffffff1660809073ffffffffffffffffffffffffffffffffffffffff168152503480156200004457600080fd5b50620000556200005b60201b60201c565b62000205565b600060019054906101000a900460ff1615620000ae576040517f08c379a0000000000000000000000000000000000000000000000000000000008152600401620000a590620001a8565b60405180910390fd5b60ff801660008054906101000a900460ff1660ff16146200011f5760ff6000806101000a81548160ff021916908360ff1602179055507f7f26b83ff96e1f2b6a682f133852f6798a09c465da95921460cefb384740249860ff604051620001169190620001e8565b60405180910390a15b565b600082825260208201905092915050565b7f496e697469616c697a61626c653a20636f6e747261637420697320696e69746960008201527f616c697a696e6700000000000000000000000000000000000000000000000000602082015250565b60006200019060278362000121565b91506200019d8262000132565b604082019050919050565b60006020820190508181036000830152620001c38162000181565b9050919050565b600060ff82169050919050565b620001e281620001ca565b82525050565b6000602082019050620001ff6000830184620001d7565b92915050565b608051615ced6200023d600039600081816111a401528181611232015281816114c60152818161155401526116280152615ced6000f3fe6080604052600436106102515760003560e01c806382dc4a0511610139578063c5f956af116100b6578063e63ab1e91161007a578063e63ab1e9146108eb578063f062a39f14610916578063f325d6f41461093f578063f3c37aa214610968578063f72c0d8b14610993578063faef9c72146109be57610251565b8063c5f956af14610806578063ca15c87314610831578063d547741f1461086e578063d75a9def14610897578063d8134a23146108c257610251565b8063a217fddf116100fd578063a217fddf1461070f578063a5ed2d9e1461073a578063bd76068d14610777578063c0f0607e146107a0578063c4a542ad146107dd57610251565b806382dc4a05146106165780638456cb59146106535780638d03c9271461066a5780639010d07c1461069557806391d14854146106d257610251565b80633eee83f1116101d25780635c975abb116101965780635c975abb146104f45780635eace30d1461051f5780636605bfda1461055c57806368f6c6f3146105855780636fda6ab2146105ae5780637ac64037146105ed57610251565b80633eee83f1146104425780633f4ba83a1461046b5780634f1ef28614610482578063524308f81461049e57806352d1902d146104c957610251565b80632f2ff15d116102195780632f2ff15d14610361578063344dd6e41461038a57806336568abe146103b35780633659cfe6146103dc5780633cf5040a1461040557610251565b806301ffc9a71461025657806314f25ff11461029357806318004b39146102bc578063248a9ca3146102e7578063271498ff14610324575b600080fd5b34801561026257600080fd5b5061027d60048036038101906102789190613bd2565b6109fb565b60405161028a9190613c1a565b60405180910390f35b34801561029f57600080fd5b506102ba60048036038101906102b59190613ca1565b610a75565b005b3480156102c857600080fd5b506102d1610d18565b6040516102de9190613cf0565b60405180910390f35b3480156102f357600080fd5b5061030e60048036038101906103099190613d0b565b610d3c565b60405161031b9190613cf0565b60405180910390f35b34801561033057600080fd5b5061034b60048036038101906103469190613d0b565b610d5c565b6040516103589190613cf0565b60405180910390f35b34801561036d57600080fd5b5061038860048036038101906103839190613d96565b610d75565b005b34801561039657600080fd5b506103b160048036038101906103ac9190613dd6565b610d96565b005b3480156103bf57600080fd5b506103da60048036038101906103d59190613d96565b61111f565b005b3480156103e857600080fd5b5061040360048036038101906103fe9190613ea0565b6111a2565b005b34801561041157600080fd5b5061042c60048036038101906104279190613d0b565b61132a565b6040516104399190613cf0565b60405180910390f35b34801561044e57600080fd5b5061046960048036038101906104649190613ea0565b611348565b005b34801561047757600080fd5b5061048061148f565b005b61049c60048036038101906104979190614013565b6114c4565b005b3480156104aa57600080fd5b506104b3611600565b6040516104c09190613cf0565b60405180910390f35b3480156104d557600080fd5b506104de611624565b6040516104eb9190613cf0565b60405180910390f35b34801561050057600080fd5b506105096116dd565b6040516105169190613c1a565b60405180910390f35b34801561052b57600080fd5b5061054660048036038101906105419190613d0b565b6116f4565b604051610553919061407e565b60405180910390f35b34801561056857600080fd5b50610583600480360381019061057e9190613ea0565b61170d565b005b34801561059157600080fd5b506105ac60048036038101906105a79190614125565b61185d565b005b3480156105ba57600080fd5b506105d560048036038101906105d091906141db565b611901565b6040516105e49392919061423b565b60405180910390f35b3480156105f957600080fd5b50610614600480360381019061060f9190614272565b611d3e565b005b34801561062257600080fd5b5061063d60048036038101906106389190613ea0565b611eb2565b60405161064a9190613c1a565b60405180910390f35b34801561065f57600080fd5b50610668611ed3565b005b34801561067657600080fd5b5061067f611f08565b60405161068c919061407e565b60405180910390f35b3480156106a157600080fd5b506106bc60048036038101906106b79190613ca1565b611f0f565b6040516106c991906142f5565b60405180910390f35b3480156106de57600080fd5b506106f960048036038101906106f49190613d96565b611f3e565b6040516107069190613c1a565b60405180910390f35b34801561071b57600080fd5b50610724611fa9565b6040516107319190613cf0565b60405180910390f35b34801561074657600080fd5b50610761600480360381019061075c9190614310565b611fb0565b60405161076e9190613cf0565b60405180910390f35b34801561078357600080fd5b5061079e6004803603810190610799919061433d565b611fd5565b005b3480156107ac57600080fd5b506107c760048036038101906107c2919061449a565b6121bc565b6040516107d49190613c1a565b60405180910390f35b3480156107e957600080fd5b5061080460048036038101906107ff91906141db565b6121f3565b005b34801561081257600080fd5b5061081b612471565b60405161082891906142f5565b60405180910390f35b34801561083d57600080fd5b5061085860048036038101906108539190613d0b565b612498565b604051610865919061407e565b60405180910390f35b34801561087a57600080fd5b5061089560048036038101906108909190613d96565b6124bc565b005b3480156108a357600080fd5b506108ac6124dd565b6040516108b99190613cf0565b60405180910390f35b3480156108ce57600080fd5b506108e960048036038101906108e49190613ea0565b612501565b005b3480156108f757600080fd5b50610900612648565b60405161090d9190613cf0565b60405180910390f35b34801561092257600080fd5b5061093d60048036038101906109389190614310565b61266c565b005b34801561094b57600080fd5b506109666004803603810190610961919061433d565b6126a3565b005b34801561097457600080fd5b5061097d612756565b60405161098a9190613cf0565b60405180910390f35b34801561099f57600080fd5b506109a861277a565b6040516109b59190613cf0565b60405180910390f35b3480156109ca57600080fd5b506109e560048036038101906109e09190613d0b565b61279e565b6040516109f29190613c1a565b60405180910390f35b60007f5a05180f000000000000000000000000000000000000000000000000000000007bffffffffffffffffffffffffffffffffffffffffffffffffffffffff1916827bffffffffffffffffffffffffffffffffffffffffffffffffffffffff19161480610a6e5750610a6d826127bf565b5b9050919050565b7fa84abcdbbbe6d3064a118960a591ebcfeb4901477f8843988e1c9d9365bbf7ac610a9f81612839565b6000801b8303610ae4576040517f08c379a0000000000000000000000000000000000000000000000000000000008152600401610adb90614540565b60405180910390fd5b6000610163600085815260200190815260200160002054905082610163600086815260200190815260200160002081905550600083118015610b455750610165600085815260200190815260200160002060009054906101000a900460ff16155b15610ba6576101648490806001815401808255809150506001900390600052602060002001600090919091909150556001610165600086815260200190815260200160002060006101000a81548160ff021916908315150217905550610cd0565b600083148015610bd45750610165600085815260200190815260200160002060009054906101000a900460ff165b15610ccf576000610165600086815260200190815260200160002060006101000a81548160ff02191690831515021790555060005b61016480549050811015610ccd57846101648281548110610c2d57610c2c614560565b5b906000526020600020015403610cc057610164600161016480549050610c5391906145be565b81548110610c6457610c63614560565b5b90600052602060002001546101648281548110610c8457610c83614560565b5b9060005260206000200181905550610164805480610ca557610ca46145f2565b5b60019003818190600052602060002001600090559055610ccd565b8080600101915050610c09565b505b5b828114610d1257837fbcd10d64fce9dcf9568572ed92e371df336d32649e8960a045c9548794a44b268442604051610d09929190614621565b60405180910390a25b50505050565b7f4b0ad04e4cfd06668c08542d3af105a3fa4b1a2813040bbb694bfecf2e5f524081565b600060656000838152602001908152602001600020600101549050919050565b6101606020528060005260406000206000915090505481565b610d7e82610d3c565b610d8781612839565b610d91838361284d565b505050565b60008060019054906101000a900460ff16159050808015610dc75750600160008054906101000a900460ff1660ff16105b80610df45750610dd630612881565b158015610df35750600160008054906101000a900460ff1660ff16145b5b610e33576040517f08c379a0000000000000000000000000000000000000000000000000000000008152600401610e2a906146bc565b60405180910390fd5b60016000806101000a81548160ff021916908360ff1602179055508015610e70576001600060016101000a81548160ff0219169083151502179055505b610e786128a4565b610e806128f5565b610e8861294e565b600073ffffffffffffffffffffffffffffffffffffffff168a73ffffffffffffffffffffffffffffffffffffffff1603610ef7576040517f08c379a0000000000000000000000000000000000000000000000000000000008152600401610eee90614728565b60405180910390fd5b600073ffffffffffffffffffffffffffffffffffffffff168373ffffffffffffffffffffffffffffffffffffffff1603610f66576040517f08c379a0000000000000000000000000000000000000000000000000000000008152600401610f5d90614794565b60405180910390fd5b610f736000801b8b61284d565b610f9d7f4b0ad04e4cfd06668c08542d3af105a3fa4b1a2813040bbb694bfecf2e5f52408a61284d565b610fc77f65d7a28e3265b37a6474929f336521b332c1681b933f6cb9f3376673440d862a8961284d565b610ff17f189ab7a9244df0848122154315af71fe140f3db0fe014031783b0946b8c9d2e38861284d565b61101b7fa516afa8a3576c26db2efe7e88d19a94f06de954da55f5a93d386f7878591c3d8761284d565b6110457fa84abcdbbbe6d3064a118960a591ebcfeb4901477f8843988e1c9d9365bbf7ac8661284d565b61106f7f9e262e26e9d5bf97da5c389e15529a31bb2b13d89967a4f6eab01792567d5fd68561284d565b8261016160006101000a81548173ffffffffffffffffffffffffffffffffffffffff021916908373ffffffffffffffffffffffffffffffffffffffff1602179055506110ba8261299f565b80156111135760008060016101000a81548160ff0219169083151502179055507f7f26b83ff96e1f2b6a682f133852f6798a09c465da95921460cefb3847402498600160405161110a9190614806565b60405180910390a15b50505050505050505050565b611127612a38565b73ffffffffffffffffffffffffffffffffffffffff168173ffffffffffffffffffffffffffffffffffffffff1614611194576040517f08c379a000000000000000000000000000000000000000000000000000000000815260040161118b90614893565b60405180910390fd5b61119e8282612a40565b5050565b7f000000000000000000000000000000000000000000000000000000000000000073ffffffffffffffffffffffffffffffffffffffff163073ffffffffffffffffffffffffffffffffffffffff1603611230576040517f08c379a000000000000000000000000000000000000000000000000000000000815260040161122790614925565b60405180910390fd5b7f000000000000000000000000000000000000000000000000000000000000000073ffffffffffffffffffffffffffffffffffffffff1661126f612a74565b73ffffffffffffffffffffffffffffffffffffffff16146112c5576040517f08c379a00000000000000000000000000000000000000000000000000000000081526004016112bc906149b7565b60405180910390fd5b6112ce81612acb565b61132781600067ffffffffffffffff8111156112ed576112ec613ee8565b5b6040519080825280601f01601f19166020018201604052801561131f5781602001600182028036833780820191505090505b506000612af9565b50565b60006101606000838152602001908152602001600020549050919050565b7f9e262e26e9d5bf97da5c389e15529a31bb2b13d89967a4f6eab01792567d5fd661137281612839565b600073ffffffffffffffffffffffffffffffffffffffff168273ffffffffffffffffffffffffffffffffffffffff16036113e1576040517f08c379a00000000000000000000000000000000000000000000000000000000081526004016113d890614a23565b60405180910390fd5b600161016260008473ffffffffffffffffffffffffffffffffffffffff1673ffffffffffffffffffffffffffffffffffffffff16815260200190815260200160002060006101000a81548160ff0219169083151502179055508173ffffffffffffffffffffffffffffffffffffffff167f04cd536213054e512a3aa50217cd4a2a142e872a6bb14a6fa56c7b71bb4ff9d8600142604051611483929190614a43565b60405180910390a25050565b7f65d7a28e3265b37a6474929f336521b332c1681b933f6cb9f3376673440d862a6114b981612839565b6114c1612c67565b50565b7f000000000000000000000000000000000000000000000000000000000000000073ffffffffffffffffffffffffffffffffffffffff163073ffffffffffffffffffffffffffffffffffffffff1603611552576040517f08c379a000000000000000000000000000000000000000000000000000000000815260040161154990614925565b60405180910390fd5b7f000000000000000000000000000000000000000000000000000000000000000073ffffffffffffffffffffffffffffffffffffffff16611591612a74565b73ffffffffffffffffffffffffffffffffffffffff16146115e7576040517f08c379a00000000000000000000000000000000000000000000000000000000081526004016115de906149b7565b60405180910390fd5b6115f082612acb565b6115fc82826001612af9565b5050565b7fa84abcdbbbe6d3064a118960a591ebcfeb4901477f8843988e1c9d9365bbf7ac81565b60007f000000000000000000000000000000000000000000000000000000000000000073ffffffffffffffffffffffffffffffffffffffff163073ffffffffffffffffffffffffffffffffffffffff16146116b4576040517f08c379a00000000000000000000000000000000000000000000000000000000081526004016116ab90614ade565b60405180910390fd5b7f360894a13ba1a3210667c828492db98dca3e2076cc3735a920a3ca505d382bbc60001b905090565b600060c960009054906101000a900460ff16905090565b6101636020528060005260406000206000915090505481565b6000801b61171a81612839565b600073ffffffffffffffffffffffffffffffffffffffff168273ffffffffffffffffffffffffffffffffffffffff1603611789576040517f08c379a000000000000000000000000000000000000000000000000000000000815260040161178090614b4a565b60405180910390fd5b600061016160009054906101000a900473ffffffffffffffffffffffffffffffffffffffff1690508261016160006101000a81548173ffffffffffffffffffffffffffffffffffffffff021916908373ffffffffffffffffffffffffffffffffffffffff1602179055508273ffffffffffffffffffffffffffffffffffffffff168173ffffffffffffffffffffffffffffffffffffffff167f08031759b0a2a99f63000784e546d7320d30692b97de1ea89a1645380cfb16f842604051611850919061407e565b60405180910390a3505050565b7fa516afa8a3576c26db2efe7e88d19a94f06de954da55f5a93d386f7878591c3d61188781612839565b8161015f858560405161189b929190614b9a565b908152602001604051809103902060006101000a81548160ff0219169083151502179055507faa7ab959ab65d55111a7326bfd6c242d2b64bab6f4de2f298d1ec3ce56922f7d8484846040516118f393929190614be0565b60405180910390a150505050565b600080600061016260008773ffffffffffffffffffffffffffffffffffffffff1673ffffffffffffffffffffffffffffffffffffffff16815260200190815260200160002060009054906101000a900460ff16611993576040517f08c379a000000000000000000000000000000000000000000000000000000000815260040161198a90614c5e565b60405180910390fd5b600085859050116119d9576040517f08c379a00000000000000000000000000000000000000000000000000000000081526004016119d090614cca565b60405180910390fd5b6000808686905067ffffffffffffffff8111156119f9576119f8613ee8565b5b604051908082528060200260200182016040528015611a275781602001602082028036833780820191505090505b5090506000805b88889050811015611b1c576000898983818110611a4e57611a4d614560565b5b905060200201359050600061016360008381526020019081526020016000205411611aae576040517f08c379a0000000000000000000000000000000000000000000000000000000008152600401611aa590614d5c565b60405180910390fd5b61016360008281526020019081526020016000205485611ace9190614d7c565b9450611adb818585612cca565b611b0e5780848481518110611af357611af2614560565b5b6020026020010181815250508280611b0a90614db0565b9350505b508080600101915050611a2e565b5060008167ffffffffffffffff811115611b3957611b38613ee8565b5b604051908082528060200260200182016040528015611b675781602001602082028036833780820191505090505b50905060005b82811015611bbc57838181518110611b8857611b87614560565b5b6020026020010151828281518110611ba357611ba2614560565b5b6020026020010181815250508080600101915050611b6d565b508396508395506000805b61016480549050811015611c375761016560006101648381548110611bef57611bee614560565b5b9060005260206000200154815260200190815260200160002060009054906101000a900460ff1615611c2a578180611c2690614db0565b9250505b8080600101915050611bc7565b50600081118015611c4757508083145b15611d305760006001905060005b61016480549050811015611cd75760006101648281548110611c7a57611c79614560565b5b90600052602060002001549050610165600082815260200190815260200160002060009054906101000a900460ff1615611cc957611cba81868751612cca565b611cc8576000925050611cd7565b5b508080600101915050611c55565b508015611d2e5760019650600061016654118015611cf9575060646101665411155b15611d2d57600060646101665488611d119190614df8565b611d1b9190614e69565b90508087611d2991906145be565b9850505b5b505b505050505093509350939050565b611d46612d1f565b7f4b0ad04e4cfd06668c08542d3af105a3fa4b1a2813040bbb694bfecf2e5f5240611d7081612839565b6000801b8503611db5576040517f08c379a0000000000000000000000000000000000000000000000000000000008152600401611dac90614ee6565b60405180910390fd5b6000801b8403611dfa576040517f08c379a0000000000000000000000000000000000000000000000000000000008152600401611df190614f52565b60405180910390fd5b6000838390501115611e5457611e5383838080601f016020809104026020016040519081016040528093929190818152602001838380828437600081840152601f19601f82011690508083019250505050505050612d69565b5b83610160600087815260200190815260200160002081905550847f69583d092ab552d25d71355c119cd82fa70d52d2a1e972ed61da424f8100854185858542604051611ea39493929190614f72565b60405180910390a25050505050565b6101626020528060005260406000206000915054906101000a900460ff1681565b7f65d7a28e3265b37a6474929f336521b332c1681b933f6cb9f3376673440d862a611efd81612839565b611f05612e24565b50565b6101665481565b6000611f368260976000868152602001908152602001600020612e8790919063ffffffff16565b905092915050565b60006065600084815260200190815260200160002060000160008373ffffffffffffffffffffffffffffffffffffffff1673ffffffffffffffffffffffffffffffffffffffff16815260200190815260200160002060009054906101000a900460ff16905092915050565b6000801b81565b6101648181548110611fc157600080fd5b906000526020600020016000915090505481565b611fdd612d1f565b7f4b0ad04e4cfd06668c08542d3af105a3fa4b1a2813040bbb694bfecf2e5f524061200781612839565b6000801b880361204c576040517f08c379a000000000000000000000000000000000000000000000000000000000815260040161204390614540565b60405180910390fd5b6000801b8703612091576040517f08c379a000000000000000000000000000000000000000000000000000000000815260040161208890614ffe565b60405180910390fd5b600073ffffffffffffffffffffffffffffffffffffffff168673ffffffffffffffffffffffffffffffffffffffff1603612100576040517f08c379a00000000000000000000000000000000000000000000000000000000081526004016120f790615090565b60405180910390fd5b600083839050111561215a5761215983838080601f016020809104026020016040519081016040528093929190818152602001838380828437600081840152601f19601f82011690508083019250505050505050612d69565b5b8573ffffffffffffffffffffffffffffffffffffffff1687897f78895176fbd204118f9208b6c52bfcd4109edc8cdf8276c2b5e98674808f6d9c88888888426040516121aa9594939291906150b0565b60405180910390a45050505050505050565b61015f818051602081018201805184825260208301602085012081835280955050505050506000915054906101000a900460ff1681565b6121fb612d1f565b600080612209858585611901565b925092505060008211612251576040517f08c379a000000000000000000000000000000000000000000000000000000000815260040161224890615145565b60405180910390fd5b6000859050828173ffffffffffffffffffffffffffffffffffffffff1663dd62ed3e33306040518363ffffffff1660e01b8152600401612292929190615165565b602060405180830381865afa1580156122af573d6000803e3d6000fd5b505050506040513d601f19601f820116820180604052508101906122d391906151a3565b1015612314576040517f08c379a000000000000000000000000000000000000000000000000000000000815260040161230b9061521c565b60405180910390fd5b60008173ffffffffffffffffffffffffffffffffffffffff166323b872dd3361016160009054906101000a900473ffffffffffffffffffffffffffffffffffffffff16876040518463ffffffff1660e01b81526004016123769392919061523c565b6020604051808303816000875af1158015612395573d6000803e3d6000fd5b505050506040513d601f19601f820116820180604052508101906123b99190615288565b9050806123fb576040517f08c379a00000000000000000000000000000000000000000000000000000000081526004016123f290615301565b60405180910390fd5b8673ffffffffffffffffffffffffffffffffffffffff163373ffffffffffffffffffffffffffffffffffffffff167f8e6ff61f2fb2d30d563f991a3b54af8932c926ec734e170b043db0964f24032b868989884260405161246095949392919061539c565b60405180910390a350505050505050565b61016160009054906101000a900473ffffffffffffffffffffffffffffffffffffffff1681565b60006124b560976000848152602001908152602001600020612ea1565b9050919050565b6124c582610d3c565b6124ce81612839565b6124d88383612a40565b505050565b7f9e262e26e9d5bf97da5c389e15529a31bb2b13d89967a4f6eab01792567d5fd681565b7f9e262e26e9d5bf97da5c389e15529a31bb2b13d89967a4f6eab01792567d5fd661252b81612839565b600073ffffffffffffffffffffffffffffffffffffffff168273ffffffffffffffffffffffffffffffffffffffff160361259a576040517f08c379a000000000000000000000000000000000000000000000000000000000815260040161259190614a23565b60405180910390fd5b600061016260008473ffffffffffffffffffffffffffffffffffffffff1673ffffffffffffffffffffffffffffffffffffffff16815260200190815260200160002060006101000a81548160ff0219169083151502179055508173ffffffffffffffffffffffffffffffffffffffff167f04cd536213054e512a3aa50217cd4a2a142e872a6bb14a6fa56c7b71bb4ff9d860004260405161263c929190614a43565b60405180910390a25050565b7f65d7a28e3265b37a6474929f336521b332c1681b933f6cb9f3376673440d862a81565b7fa84abcdbbbe6d3064a118960a591ebcfeb4901477f8843988e1c9d9365bbf7ac61269681612839565b61269f8261299f565b5050565b6126ab612d1f565b7f4b0ad04e4cfd06668c08542d3af105a3fa4b1a2813040bbb694bfecf2e5f52406126d581612839565b3073ffffffffffffffffffffffffffffffffffffffff1663bd76068d898989898989896040518863ffffffff1660e01b815260040161271a97969594939291906153ea565b600060405180830381600087803b15801561273457600080fd5b505af1158015612748573d6000803e3d6000fd5b505050505050505050505050565b7fa516afa8a3576c26db2efe7e88d19a94f06de954da55f5a93d386f7878591c3d81565b7f189ab7a9244df0848122154315af71fe140f3db0fe014031783b0946b8c9d2e381565b6101656020528060005260406000206000915054906101000a900460ff1681565b60007f7965db0b000000000000000000000000000000000000000000000000000000007bffffffffffffffffffffffffffffffffffffffffffffffffffffffff1916827bffffffffffffffffffffffffffffffffffffffffffffffffffffffff19161480612832575061283182612eb6565b5b9050919050565b61284a81612845612a38565b612f20565b50565b6128578282612fa5565b61287c816097600085815260200190815260200160002061308690919063ffffffff16565b505050565b6000808273ffffffffffffffffffffffffffffffffffffffff163b119050919050565b600060019054906101000a900460ff166128f3576040517f08c379a00000000000000000000000000000000000000000000000000000000081526004016128ea906154c1565b60405180910390fd5b565b600060019054906101000a900460ff16612944576040517f08c379a000000000000000000000000000000000000000000000000000000000815260040161293b906154c1565b60405180910390fd5b61294c6130b6565b565b600060019054906101000a900460ff1661299d576040517f08c379a0000000000000000000000000000000000000000000000000000000008152600401612994906154c1565b60405180910390fd5b565b60648111156129e3576040517f08c379a00000000000000000000000000000000000000000000000000000000081526004016129da9061552d565b60405180910390fd5b60006101665490508161016681905550818114612a34577f6562ffdd92d98836e262175f8eec6ad7cbf906d0f00c6c320525098be83509968242604051612a2b929190614621565b60405180910390a15b5050565b600033905090565b612a4a8282613122565b612a6f816097600085815260200190815260200160002061320490919063ffffffff16565b505050565b6000612aa27f360894a13ba1a3210667c828492db98dca3e2076cc3735a920a3ca505d382bbc60001b613234565b60000160009054906101000a900473ffffffffffffffffffffffffffffffffffffffff16905090565b7f189ab7a9244df0848122154315af71fe140f3db0fe014031783b0946b8c9d2e3612af581612839565b5050565b612b257f4910fdfa16fed3260ed0e7147f7cc6da11a60208b5b9406d12a635614ffd914360001b61323e565b60000160009054906101000a900460ff1615612b4957612b4483613248565b612c62565b8273ffffffffffffffffffffffffffffffffffffffff166352d1902d6040518163ffffffff1660e01b8152600401602060405180830381865afa925050508015612bb157506040513d601f19601f82011682018060405250810190612bae9190615562565b60015b612bf0576040517f08c379a0000000000000000000000000000000000000000000000000000000008152600401612be790615601565b60405180910390fd5b7f360894a13ba1a3210667c828492db98dca3e2076cc3735a920a3ca505d382bbc60001b8114612c55576040517f08c379a0000000000000000000000000000000000000000000000000000000008152600401612c4c90615693565b60405180910390fd5b50612c61838383613301565b5b505050565b612c6f61332d565b600060c960006101000a81548160ff0219169083151502179055507f5db9ee0a495bf2e6ff9c91a7834c1ba4fdd244a5e8aa4e537bd38aeae4b073aa612cb3612a38565b604051612cc091906142f5565b60405180910390a1565b600080600090505b82811015612d125784848281518110612cee57612ced614560565b5b602002602001015103612d05576001915050612d18565b8080600101915050612cd2565b50600090505b9392505050565b612d276116dd565b15612d67576040517f08c379a0000000000000000000000000000000000000000000000000000000008152600401612d5e906156ff565b60405180910390fd5b565b6000815111612dad576040517f08c379a0000000000000000000000000000000000000000000000000000000008152600401612da490615791565b60405180910390fd5b61015f612db982613376565b604051612dc69190615817565b908152602001604051809103902060009054906101000a900460ff16612e21576040517f08c379a0000000000000000000000000000000000000000000000000000000008152600401612e189061587a565b60405180910390fd5b50565b612e2c612d1f565b600160c960006101000a81548160ff0219169083151502179055507f62e78cea01bee320cd4e420270b5ea74000d11b0c9f74754ebdbfc544b05a258612e70612a38565b604051612e7d91906142f5565b60405180910390a1565b6000612e968360000183613553565b60001c905092915050565b6000612eaf8260000161357e565b9050919050565b60007f01ffc9a7000000000000000000000000000000000000000000000000000000007bffffffffffffffffffffffffffffffffffffffffffffffffffffffff1916827bffffffffffffffffffffffffffffffffffffffffffffffffffffffff1916149050919050565b612f2a8282611f3e565b612fa157612f378161358f565b612f458360001c60206135bc565b604051602001612f56929190615932565b6040516020818303038152906040526040517f08c379a0000000000000000000000000000000000000000000000000000000008152600401612f9891906159a5565b60405180910390fd5b5050565b612faf8282611f3e565b6130825760016065600084815260200190815260200160002060000160008373ffffffffffffffffffffffffffffffffffffffff1673ffffffffffffffffffffffffffffffffffffffff16815260200190815260200160002060006101000a81548160ff021916908315150217905550613027612a38565b73ffffffffffffffffffffffffffffffffffffffff168173ffffffffffffffffffffffffffffffffffffffff16837f2f8788117e7eff1d82e926ec794901d17c78024a50270940304540a733656f0d60405160405180910390a45b5050565b60006130ae836000018373ffffffffffffffffffffffffffffffffffffffff1660001b6137f8565b905092915050565b600060019054906101000a900460ff16613105576040517f08c379a00000000000000000000000000000000000000000000000000000000081526004016130fc906154c1565b60405180910390fd5b600060c960006101000a81548160ff021916908315150217905550565b61312c8282611f3e565b156132005760006065600084815260200190815260200160002060000160008373ffffffffffffffffffffffffffffffffffffffff1673ffffffffffffffffffffffffffffffffffffffff16815260200190815260200160002060006101000a81548160ff0219169083151502179055506131a5612a38565b73ffffffffffffffffffffffffffffffffffffffff168173ffffffffffffffffffffffffffffffffffffffff16837ff6391f5c32d9c69d2a47ea670b442974b53935d1edc7fd64eb21e047a839171b60405160405180910390a45b5050565b600061322c836000018373ffffffffffffffffffffffffffffffffffffffff1660001b613868565b905092915050565b6000819050919050565b6000819050919050565b61325181612881565b613290576040517f08c379a000000000000000000000000000000000000000000000000000000000815260040161328790615a39565b60405180910390fd5b806132bd7f360894a13ba1a3210667c828492db98dca3e2076cc3735a920a3ca505d382bbc60001b613234565b60000160006101000a81548173ffffffffffffffffffffffffffffffffffffffff021916908373ffffffffffffffffffffffffffffffffffffffff16021790555050565b61330a8361397c565b6000825111806133175750805b156133285761332683836139cb565b505b505050565b6133356116dd565b613374576040517f08c379a000000000000000000000000000000000000000000000000000000000815260040161336b90615aa5565b60405180910390fd5b565b606060008083905060005b8151811015613405577f3a000000000000000000000000000000000000000000000000000000000000008282815181106133be576133bd614560565b5b602001015160f81c60f81b7effffffffffffffffffffffffffffffffffffffffffffffffffffffffffffff1916036133f857809250613405565b8080600101915050613381565b50600082118015613422575080516002836134209190614d7c565b105b613461576040517f08c379a000000000000000000000000000000000000000000000000000000000815260040161345890615b11565b60405180910390fd5b60006003836134709190614d7c565b67ffffffffffffffff81111561348957613488613ee8565b5b6040519080825280601f01601f1916602001820160405280156134bb5781602001600182028036833780820191505090505b50905060005b6002846134ce9190614d7c565b8111613547578281815181106134e7576134e6614560565b5b602001015160f81c60f81b82828151811061350557613504614560565b5b60200101907effffffffffffffffffffffffffffffffffffffffffffffffffffffffffffff1916908160001a905350808061353f90614db0565b9150506134c1565b50809350505050919050565b600082600001828154811061356b5761356a614560565b5b9060005260206000200154905092915050565b600081600001805490509050919050565b60606135b58273ffffffffffffffffffffffffffffffffffffffff16601460ff166135bc565b9050919050565b6060600060028360026135cf9190614df8565b6135d99190614d7c565b67ffffffffffffffff8111156135f2576135f1613ee8565b5b6040519080825280601f01601f1916602001820160405280156136245781602001600182028036833780820191505090505b5090507f30000000000000000000000000000000000000000000000000000000000000008160008151811061365c5761365b614560565b5b60200101907effffffffffffffffffffffffffffffffffffffffffffffffffffffffffffff1916908160001a9053507f7800000000000000000000000000000000000000000000000000000000000000816001815181106136c0576136bf614560565b5b60200101907effffffffffffffffffffffffffffffffffffffffffffffffffffffffffffff1916908160001a905350600060018460026137009190614df8565b61370a9190614d7c565b90505b60018111156137aa577f3031323334353637383961626364656600000000000000000000000000000000600f86166010811061374c5761374b614560565b5b1a60f81b82828151811061376357613762614560565b5b60200101907effffffffffffffffffffffffffffffffffffffffffffffffffffffffffffff1916908160001a905350600485901c9450806137a390615b31565b905061370d565b50600084146137ee576040517f08c379a00000000000000000000000000000000000000000000000000000000081526004016137e590615ba6565b60405180910390fd5b8091505092915050565b600061380483836139f8565b61385d578260000182908060018154018082558091505060019003906000526020600020016000909190919091505582600001805490508360010160008481526020019081526020016000208190555060019050613862565b600090505b92915050565b6000808360010160008481526020019081526020016000205490506000811461397057600060018261389a91906145be565b90506000600186600001805490506138b291906145be565b90508181146139215760008660000182815481106138d3576138d2614560565b5b90600052602060002001549050808760000184815481106138f7576138f6614560565b5b90600052602060002001819055508387600101600083815260200190815260200160002081905550505b85600001805480613935576139346145f2565b5b600190038181906000526020600020016000905590558560010160008681526020019081526020016000206000905560019350505050613976565b60009150505b92915050565b61398581613248565b8073ffffffffffffffffffffffffffffffffffffffff167fbc7cd75a20ee27fd9adebab32041f755214dbc6bffa90cc0225b39da2e5c2d3b60405160405180910390a250565b60606139f08383604051806060016040528060278152602001615c9160279139613a1b565b905092915050565b600080836001016000848152602001908152602001600020541415905092915050565b60606000808573ffffffffffffffffffffffffffffffffffffffff1685604051613a459190615c0d565b600060405180830381855af49150503d8060008114613a80576040519150601f19603f3d011682016040523d82523d6000602084013e613a85565b606091505b5091509150613a9686838387613aa1565b925050509392505050565b60608315613b03576000835103613afb57613abb85612881565b613afa576040517f08c379a0000000000000000000000000000000000000000000000000000000008152600401613af190615c70565b60405180910390fd5b5b829050613b0e565b613b0d8383613b16565b5b949350505050565b600082511115613b295781518083602001fd5b806040517f08c379a0000000000000000000000000000000000000000000000000000000008152600401613b5d91906159a5565b60405180910390fd5b6000604051905090565b600080fd5b600080fd5b60007fffffffff0000000000000000000000000000000000000000000000000000000082169050919050565b613baf81613b7a565b8114613bba57600080fd5b50565b600081359050613bcc81613ba6565b92915050565b600060208284031215613be857613be7613b70565b5b6000613bf684828501613bbd565b91505092915050565b60008115159050919050565b613c1481613bff565b82525050565b6000602082019050613c2f6000830184613c0b565b92915050565b6000819050919050565b613c4881613c35565b8114613c5357600080fd5b50565b600081359050613c6581613c3f565b92915050565b6000819050919050565b613c7e81613c6b565b8114613c8957600080fd5b50565b600081359050613c9b81613c75565b92915050565b60008060408385031215613cb857613cb7613b70565b5b6000613cc685828601613c56565b9250506020613cd785828601613c8c565b9150509250929050565b613cea81613c35565b82525050565b6000602082019050613d056000830184613ce1565b92915050565b600060208284031215613d2157613d20613b70565b5b6000613d2f84828501613c56565b91505092915050565b600073ffffffffffffffffffffffffffffffffffffffff82169050919050565b6000613d6382613d38565b9050919050565b613d7381613d58565b8114613d7e57600080fd5b50565b600081359050613d9081613d6a565b92915050565b60008060408385031215613dad57613dac613b70565b5b6000613dbb85828601613c56565b9250506020613dcc85828601613d81565b9150509250929050565b60008060008060008060008060006101208a8c031215613df957613df8613b70565b5b6000613e078c828d01613d81565b9950506020613e188c828d01613d81565b9850506040613e298c828d01613d81565b9750506060613e3a8c828d01613d81565b9650506080613e4b8c828d01613d81565b95505060a0613e5c8c828d01613d81565b94505060c0613e6d8c828d01613d81565b93505060e0613e7e8c828d01613d81565b925050610100613e908c828d01613c8c565b9150509295985092959850929598565b600060208284031215613eb657613eb5613b70565b5b6000613ec484828501613d81565b91505092915050565b600080fd5b600080fd5b6000601f19601f8301169050919050565b7f4e487b7100000000000000000000000000000000000000000000000000000000600052604160045260246000fd5b613f2082613ed7565b810181811067ffffffffffffffff82111715613f3f57613f3e613ee8565b5b80604052505050565b6000613f52613b66565b9050613f5e8282613f17565b919050565b600067ffffffffffffffff821115613f7e57613f7d613ee8565b5b613f8782613ed7565b9050602081019050919050565b82818337600083830152505050565b6000613fb6613fb184613f63565b613f48565b905082815260208101848484011115613fd257613fd1613ed2565b5b613fdd848285613f94565b509392505050565b600082601f830112613ffa57613ff9613ecd565b5b813561400a848260208601613fa3565b91505092915050565b6000806040838503121561402a57614029613b70565b5b600061403885828601613d81565b925050602083013567ffffffffffffffff81111561405957614058613b75565b5b61406585828601613fe5565b9150509250929050565b61407881613c6b565b82525050565b6000602082019050614093600083018461406f565b92915050565b600080fd5b600080fd5b60008083601f8401126140b9576140b8613ecd565b5b8235905067ffffffffffffffff8111156140d6576140d5614099565b5b6020830191508360018202830111156140f2576140f161409e565b5b9250929050565b61410281613bff565b811461410d57600080fd5b50565b60008135905061411f816140f9565b92915050565b60008060006040848603121561413e5761413d613b70565b5b600084013567ffffffffffffffff81111561415c5761415b613b75565b5b614168868287016140a3565b9350935050602061417b86828701614110565b9150509250925092565b60008083601f84011261419b5761419a613ecd565b5b8235905067ffffffffffffffff8111156141b8576141b7614099565b5b6020830191508360208202830111156141d4576141d361409e565b5b9250929050565b6000806000604084860312156141f4576141f3613b70565b5b600061420286828701613d81565b935050602084013567ffffffffffffffff81111561422357614222613b75565b5b61422f86828701614185565b92509250509250925092565b6000606082019050614250600083018661406f565b61425d602083018561406f565b61426a6040830184613c0b565b949350505050565b6000806000806060858703121561428c5761428b613b70565b5b600061429a87828801613c56565b94505060206142ab87828801613c56565b935050604085013567ffffffffffffffff8111156142cc576142cb613b75565b5b6142d8878288016140a3565b925092505092959194509250565b6142ef81613d58565b82525050565b600060208201905061430a60008301846142e6565b92915050565b60006020828403121561432657614325613b70565b5b600061433484828501613c8c565b91505092915050565b600080600080600080600060a0888a03121561435c5761435b613b70565b5b600061436a8a828b01613c56565b975050602061437b8a828b01613c56565b965050604061438c8a828b01613d81565b955050606088013567ffffffffffffffff8111156143ad576143ac613b75565b5b6143b98a828b016140a3565b9450945050608088013567ffffffffffffffff8111156143dc576143db613b75565b5b6143e88a828b016140a3565b925092505092959891949750929550565b600067ffffffffffffffff82111561441457614413613ee8565b5b61441d82613ed7565b9050602081019050919050565b600061443d614438846143f9565b613f48565b90508281526020810184848401111561445957614458613ed2565b5b614464848285613f94565b509392505050565b600082601f83011261448157614480613ecd565b5b813561449184826020860161442a565b91505092915050565b6000602082840312156144b0576144af613b70565b5b600082013567ffffffffffffffff8111156144ce576144cd613b75565b5b6144da8482850161446c565b91505092915050565b600082825260208201905092915050565b7f546f6f6c2049442063616e6e6f74206265207a65726f00000000000000000000600082015250565b600061452a6016836144e3565b9150614535826144f4565b602082019050919050565b600060208201905081810360008301526145598161451d565b9050919050565b7f4e487b7100000000000000000000000000000000000000000000000000000000600052603260045260246000fd5b7f4e487b7100000000000000000000000000000000000000000000000000000000600052601160045260246000fd5b60006145c982613c6b565b91506145d483613c6b565b92508282039050818111156145ec576145eb61458f565b5b92915050565b7f4e487b7100000000000000000000000000000000000000000000000000000000600052603160045260246000fd5b6000604082019050614636600083018561406f565b614643602083018461406f565b9392505050565b7f496e697469616c697a61626c653a20636f6e747261637420697320616c72656160008201527f647920696e697469616c697a6564000000000000000000000000000000000000602082015250565b60006146a6602e836144e3565b91506146b18261464a565b604082019050919050565b600060208201905081810360008301526146d581614699565b9050919050565b7f496e697469616c2061646d696e2063616e6e6f74206265207a65726f00000000600082015250565b6000614712601c836144e3565b915061471d826146dc565b602082019050919050565b6000602082019050818103600083015261474181614705565b9050919050565b7f54726561737572792063616e6e6f74206265207a65726f000000000000000000600082015250565b600061477e6017836144e3565b915061478982614748565b602082019050919050565b600060208201905081810360008301526147ad81614771565b9050919050565b6000819050919050565b600060ff82169050919050565b6000819050919050565b60006147f06147eb6147e6846147b4565b6147cb565b6147be565b9050919050565b614800816147d5565b82525050565b600060208201905061481b60008301846147f7565b92915050565b7f416363657373436f6e74726f6c3a2063616e206f6e6c792072656e6f756e636560008201527f20726f6c657320666f722073656c660000000000000000000000000000000000602082015250565b600061487d602f836144e3565b915061488882614821565b604082019050919050565b600060208201905081810360008301526148ac81614870565b9050919050565b7f46756e6374696f6e206d7573742062652063616c6c6564207468726f7567682060008201527f64656c656761746563616c6c0000000000000000000000000000000000000000602082015250565b600061490f602c836144e3565b915061491a826148b3565b604082019050919050565b6000602082019050818103600083015261493e81614902565b9050919050565b7f46756e6374696f6e206d7573742062652063616c6c6564207468726f7567682060008201527f6163746976652070726f78790000000000000000000000000000000000000000602082015250565b60006149a1602c836144e3565b91506149ac82614945565b604082019050919050565b600060208201905081810360008301526149d081614994565b9050919050565b7f546f6b656e20616464726573732063616e6e6f74206265207a65726f00000000600082015250565b6000614a0d601c836144e3565b9150614a18826149d7565b602082019050919050565b60006020820190508181036000830152614a3c81614a00565b9050919050565b6000604082019050614a586000830185613c0b565b614a65602083018461406f565b9392505050565b7f555550535570677261646561626c653a206d757374206e6f742062652063616c60008201527f6c6564207468726f7567682064656c656761746563616c6c0000000000000000602082015250565b6000614ac86038836144e3565b9150614ad382614a6c565b604082019050919050565b60006020820190508181036000830152614af781614abb565b9050919050565b7f4e65772074726561737572792063616e6e6f74206265207a65726f0000000000600082015250565b6000614b34601b836144e3565b9150614b3f82614afe565b602082019050919050565b60006020820190508181036000830152614b6381614b27565b9050919050565b600081905092915050565b6000614b818385614b6a565b9350614b8e838584613f94565b82840190509392505050565b6000614ba7828486614b75565b91508190509392505050565b6000614bbf83856144e3565b9350614bcc838584613f94565b614bd583613ed7565b840190509392505050565b60006040820190508181036000830152614bfb818587614bb3565b9050614c0a6020830184613c0b565b949350505050565b7f546f6b656e206e6f742061636365707465640000000000000000000000000000600082015250565b6000614c486012836144e3565b9150614c5382614c12565b602082019050919050565b60006020820190508181036000830152614c7781614c3b565b9050919050565b7f4e6f20746f6f6c732073656c6563746564000000000000000000000000000000600082015250565b6000614cb46011836144e3565b9150614cbf82614c7e565b602082019050919050565b60006020820190508181036000830152614ce381614ca7565b9050919050565b7f496e76616c6964206f7220756e70726963656420746f6f6c2073656c6563746560008201527f6400000000000000000000000000000000000000000000000000000000000000602082015250565b6000614d466021836144e3565b9150614d5182614cea565b604082019050919050565b60006020820190508181036000830152614d7581614d39565b9050919050565b6000614d8782613c6b565b9150614d9283613c6b565b9250828201905080821115614daa57614da961458f565b5b92915050565b6000614dbb82613c6b565b91507fffffffffffffffffffffffffffffffffffffffffffffffffffffffffffffffff8203614ded57614dec61458f565b5b600182019050919050565b6000614e0382613c6b565b9150614e0e83613c6b565b9250828202614e1c81613c6b565b91508282048414831517614e3357614e3261458f565b5b5092915050565b7f4e487b7100000000000000000000000000000000000000000000000000000000600052601260045260246000fd5b6000614e7482613c6b565b9150614e7f83613c6b565b925082614e8f57614e8e614e3a565b5b828204905092915050565b7f436f6e74656e742049442063616e6e6f74206265207a65726f00000000000000600082015250565b6000614ed06019836144e3565b9150614edb82614e9a565b602082019050919050565b60006020820190508181036000830152614eff81614ec3565b9050919050565b7f436f6e74656e7420686173682063616e6e6f74206265207a65726f0000000000600082015250565b6000614f3c601b836144e3565b9150614f4782614f06565b602082019050919050565b60006020820190508181036000830152614f6b81614f2f565b9050919050565b6000606082019050614f876000830187613ce1565b8181036020830152614f9a818587614bb3565b9050614fa9604083018461406f565b95945050505050565b7f416374696f6e20547970652063616e6e6f74206265207a65726f000000000000600082015250565b6000614fe8601a836144e3565b9150614ff382614fb2565b602082019050919050565b6000602082019050818103600083015261501781614fdb565b9050919050565b7f4576656e7420757365722063616e6e6f74206265207a65726f2061646472657360008201527f7300000000000000000000000000000000000000000000000000000000000000602082015250565b600061507a6021836144e3565b91506150858261501e565b604082019050919050565b600060208201905081810360008301526150a98161506d565b9050919050565b600060608201905081810360008301526150cb818789614bb3565b905081810360208301526150e0818587614bb3565b90506150ef604083018461406f565b9695505050505050565b7f43616c63756c61746564207072696365206973207a65726f0000000000000000600082015250565b600061512f6018836144e3565b915061513a826150f9565b602082019050919050565b6000602082019050818103600083015261515e81615122565b9050919050565b600060408201905061517a60008301856142e6565b61518760208301846142e6565b9392505050565b60008151905061519d81613c75565b92915050565b6000602082840312156151b9576151b8613b70565b5b60006151c78482850161518e565b91505092915050565b7f546f6b656e20616c6c6f77616e636520746f6f206c6f77000000000000000000600082015250565b60006152066017836144e3565b9150615211826151d0565b602082019050919050565b60006020820190508181036000830152615235816151f9565b9050919050565b600060608201905061525160008301866142e6565b61525e60208301856142e6565b61526b604083018461406f565b949350505050565b600081519050615282816140f9565b92915050565b60006020828403121561529e5761529d613b70565b5b60006152ac84828501615273565b91505092915050565b7f546f6b656e207472616e73666572206661696c65640000000000000000000000600082015250565b60006152eb6015836144e3565b91506152f6826152b5565b602082019050919050565b6000602082019050818103600083015261531a816152de565b9050919050565b600082825260208201905092915050565b600080fd5b82818337505050565b600061534c8385615321565b93507f07ffffffffffffffffffffffffffffffffffffffffffffffffffffffffffffff83111561537f5761537e615332565b5b602083029250615390838584615337565b82840190509392505050565b60006080820190506153b1600083018861406f565b81810360208301526153c4818688615340565b90506153d36040830185613c0b565b6153e0606083018461406f565b9695505050505050565b600060a0820190506153ff600083018a613ce1565b61540c6020830189613ce1565b61541960408301886142e6565b818103606083015261542c818688614bb3565b90508181036080830152615441818486614bb3565b905098975050505050505050565b7f496e697469616c697a61626c653a20636f6e7472616374206973206e6f74206960008201527f6e697469616c697a696e67000000000000000000000000000000000000000000602082015250565b60006154ab602b836144e3565b91506154b68261544f565b604082019050919050565b600060208201905081810360008301526154da8161549e565b9050919050565b7f446973636f756e742063616e6e6f742065786365656420313030250000000000600082015250565b6000615517601b836144e3565b9150615522826154e1565b602082019050919050565b600060208201905081810360008301526155468161550a565b9050919050565b60008151905061555c81613c3f565b92915050565b60006020828403121561557857615577613b70565b5b60006155868482850161554d565b91505092915050565b7f45524331393637557067726164653a206e657720696d706c656d656e7461746960008201527f6f6e206973206e6f742055555053000000000000000000000000000000000000602082015250565b60006155eb602e836144e3565b91506155f68261558f565b604082019050919050565b6000602082019050818103600083015261561a816155de565b9050919050565b7f45524331393637557067726164653a20756e737570706f727465642070726f7860008201527f6961626c65555549440000000000000000000000000000000000000000000000602082015250565b600061567d6029836144e3565b915061568882615621565b604082019050919050565b600060208201905081810360008301526156ac81615670565b9050919050565b7f5061757361626c653a2070617573656400000000000000000000000000000000600082015250565b60006156e96010836144e3565b91506156f4826156b3565b602082019050919050565b60006020820190508181036000830152615718816156dc565b9050919050565b7f4d65746164617461205552492063616e6e6f7420626520656d7074792069662060008201527f70726f7669646564000000000000000000000000000000000000000000000000602082015250565b600061577b6028836144e3565b91506157868261571f565b604082019050919050565b600060208201905081810360008301526157aa8161576e565b9050919050565b600081519050919050565b60005b838110156157da5780820151818401526020810190506157bf565b60008484015250505050565b60006157f1826157b1565b6157fb8185614b6a565b935061580b8185602086016157bc565b80840191505092915050565b600061582382846157e6565b915081905092915050565b7f4d657461646174612055524920707265666978206e6f7420616c6c6f77656400600082015250565b6000615864601f836144e3565b915061586f8261582e565b602082019050919050565b6000602082019050818103600083015261589381615857565b9050919050565b7f416363657373436f6e74726f6c3a206163636f756e7420000000000000000000600082015250565b60006158d0601783614b6a565b91506158db8261589a565b601782019050919050565b7f206973206d697373696e6720726f6c6520000000000000000000000000000000600082015250565b600061591c601183614b6a565b9150615927826158e6565b601182019050919050565b600061593d826158c3565b915061594982856157e6565b91506159548261590f565b915061596082846157e6565b91508190509392505050565b6000615977826157b1565b61598181856144e3565b93506159918185602086016157bc565b61599a81613ed7565b840191505092915050565b600060208201905081810360008301526159bf818461596c565b905092915050565b7f455243313936373a206e657720696d706c656d656e746174696f6e206973206e60008201527f6f74206120636f6e747261637400000000000000000000000000000000000000602082015250565b6000615a23602d836144e3565b9150615a2e826159c7565b604082019050919050565b60006020820190508181036000830152615a5281615a16565b9050919050565b7f5061757361626c653a206e6f7420706175736564000000000000000000000000600082015250565b6000615a8f6014836144e3565b9150615a9a82615a59565b602082019050919050565b60006020820190508181036000830152615abe81615a82565b9050919050565b7f496e76616c69642055524920666f726d617420666f7220707265666978000000600082015250565b6000615afb601d836144e3565b9150615b0682615ac5565b602082019050919050565b60006020820190508181036000830152615b2a81615aee565b9050919050565b6000615b3c82613c6b565b915060008203615b4f57615b4e61458f565b5b600182039050919050565b7f537472696e67733a20686578206c656e67746820696e73756666696369656e74600082015250565b6000615b906020836144e3565b9150615b9b82615b5a565b602082019050919050565b60006020820190508181036000830152615bbf81615b83565b9050919050565b600081519050919050565b600081905092915050565b6000615be782615bc6565b615bf18185615bd1565b9350615c018185602086016157bc565b80840191505092915050565b6000615c198284615bdc565b915081905092915050565b7f416464726573733a2063616c6c20746f206e6f6e2d636f6e7472616374000000600082015250565b6000615c5a601d836144e3565b9150615c6582615c24565b602082019050919050565b60006020820190508181036000830152615c8981615c4d565b905091905056fe416464726573733a206c6f772d6c6576656c2064656c65676174652063616c6c206661696c6564a2646970667358221220dd21fedf317555a42a1d69e557fd7762d71f3625b697f8fd2b5f03454c493a0664736f6c63430008160033",
  "linkReferences": {},
  "deployedLinkReferences": {}
}